{
  "contractName": "ResourceList",
  "abi": [
    {
      "anonymous": false,
      "inputs": [
        {
          "indexed": true,
          "internalType": "string",
          "name": "resource",
          "type": "string"
        },
        {
          "indexed": false,
          "internalType": "address",
          "name": "user",
          "type": "address"
        },
        {
          "indexed": false,
          "internalType": "string",
          "name": "remix",
          "type": "string"
        },
        {
          "indexed": false,
          "internalType": "string",
          "name": "comment",
          "type": "string"
        },
        {
          "indexed": false,
          "internalType": "uint256",
          "name": "timestamp",
          "type": "uint256"
        }
      ],
      "name": "ResourceAdapted",
      "type": "event"
    },
    {
      "anonymous": false,
      "inputs": [
        {
          "indexed": true,
          "internalType": "address",
          "name": "publisher",
          "type": "address"
        },
        {
          "indexed": true,
          "internalType": "string",
          "name": "filehash",
          "type": "string"
        },
        {
          "indexed": false,
          "internalType": "uint256",
          "name": "timestamp",
          "type": "uint256"
        }
      ],
      "name": "ResourceAdded",
      "type": "event"
    },
    {
      "anonymous": false,
      "inputs": [
        {
          "indexed": true,
          "internalType": "string",
          "name": "resource",
          "type": "string"
        },
        {
          "indexed": false,
          "internalType": "address",
          "name": "user",
          "type": "address"
        },
        {
          "indexed": false,
          "internalType": "enum ResourceList.Usages",
          "name": "usage",
          "type": "uint8"
        },
        {
          "indexed": false,
          "internalType": "string",
          "name": "comment",
          "type": "string"
        },
        {
          "indexed": false,
          "internalType": "uint256",
          "name": "timestamp",
          "type": "uint256"
        }
      ],
      "name": "ResourceUsed",
      "type": "event"
    },
    {
      "inputs": [
        {
          "internalType": "uint256",
          "name": "",
          "type": "uint256"
        }
      ],
      "name": "resourceIndex",
      "outputs": [
        {
          "internalType": "string",
          "name": "",
          "type": "string"
        }
      ],
      "stateMutability": "view",
      "type": "function",
      "constant": true
    },
    {
      "inputs": [
        {
          "internalType": "string",
          "name": "",
          "type": "string"
        }
      ],
      "name": "resources",
      "outputs": [
        {
          "internalType": "address",
          "name": "publisher",
          "type": "address"
        },
        {
          "internalType": "bytes32",
          "name": "title",
          "type": "bytes32"
        },
        {
          "internalType": "string",
          "name": "filehash",
          "type": "string"
        },
        {
          "internalType": "string",
          "name": "description",
          "type": "string"
        },
        {
          "internalType": "uint256",
          "name": "timestamp",
          "type": "uint256"
        },
        {
          "internalType": "enum ResourceList.Licenses",
          "name": "license",
          "type": "uint8"
        },
        {
          "internalType": "string",
          "name": "remixOf",
          "type": "string"
        }
      ],
      "stateMutability": "view",
      "type": "function",
      "constant": true
    },
    {
      "inputs": [
        {
          "internalType": "bytes32",
          "name": "_title",
          "type": "bytes32"
        },
        {
          "internalType": "string",
          "name": "_filehash",
          "type": "string"
        },
        {
          "internalType": "string",
          "name": "_description",
          "type": "string"
        },
        {
          "internalType": "enum ResourceList.Licenses",
          "name": "_license",
          "type": "uint8"
        },
        {
          "internalType": "string",
          "name": "_remixOf",
          "type": "string"
        },
        {
          "internalType": "string",
          "name": "remixComment",
          "type": "string"
        }
      ],
      "name": "addResource",
      "outputs": [
        {
          "internalType": "bool",
          "name": "success",
          "type": "bool"
        }
      ],
      "stateMutability": "nonpayable",
      "type": "function"
    },
    {
      "inputs": [
        {
          "internalType": "string",
          "name": "_resource",
          "type": "string"
        },
        {
          "internalType": "enum ResourceList.Usages",
          "name": "_usage",
          "type": "uint8"
        },
        {
          "internalType": "string",
          "name": "_comment",
          "type": "string"
        }
      ],
      "name": "registerUsage",
      "outputs": [
        {
          "internalType": "bool",
          "name": "success",
          "type": "bool"
        }
      ],
      "stateMutability": "nonpayable",
      "type": "function"
    },
    {
      "inputs": [],
      "name": "getResourcesCount",
      "outputs": [
        {
          "internalType": "uint256",
          "name": "count",
          "type": "uint256"
        }
      ],
      "stateMutability": "view",
      "type": "function",
      "constant": true
    }
  ],
  "bytecode": "0x608060405234801561001057600080fd5b50610b8b806100206000396000f3fe608060405234801561001057600080fd5b50600436106100575760003560e01c806304f86f3c1461005c5780630c5380151461008b57806314ced016146100ae578063324e40c0146100bf578063338e121d146100df575b600080fd5b61006f61006a366004610889565b6100f2565b604051610082979695949392919061099c565b60405180910390f35b61009e6100993660046108c4565b6102e2565b6040519015158152602001610082565b600154604051908152602001610082565b6100d26100cd36600461093c565b610341565b6040516100829190610aa4565b61009e6100ed3660046107c8565b6103ed565b80516020818301810180516000825292820191909301209152805460018201546002830180546001600160a01b0390931693919261012f90610aee565b80601f016020809104026020016040519081016040528092919081815260200182805461015b90610aee565b80156101a85780601f1061017d576101008083540402835291602001916101a8565b820191906000526020600020905b81548152906001019060200180831161018b57829003601f168201915b5050505050908060030180546101bd90610aee565b80601f01602080910402602001604051908101604052809291908181526020018280546101e990610aee565b80156102365780601f1061020b57610100808354040283529160200191610236565b820191906000526020600020905b81548152906001019060200180831161021957829003601f168201915b50505050600483015460058401546006850180549495929460ff90921693509061025f90610aee565b80601f016020809104026020016040519081016040528092919081815260200182805461028b90610aee565b80156102d85780601f106102ad576101008083540402835291602001916102d8565b820191906000526020600020905b8154815290600101906020018083116102bb57829003601f168201915b5050505050905087565b6000836040516102f29190610980565b60405180910390207fba42f934f7d6c3dc144eb7f3b8e248b9700b31862ca0cb134b1476fe275429163385854260405161032f9493929190610a13565b60405180910390a25060019392505050565b6001818154811061035157600080fd5b90600052602060002001600091509050805461036c90610aee565b80601f016020809104026020016040519081016040528092919081815260200182805461039890610aee565b80156103e55780601f106103ba576101008083540402835291602001916103e5565b820191906000526020600020905b8154815290600101906020018083116103c857829003601f168201915b505050505081565b6000806040518060e00160405280336001600160a01b0316815260200189815260200188815260200187815260200142815260200186600681111561044257634e487b7160e01b600052602160045260246000fd5b81526020018581525090508060008860405161045e9190610980565b9081526040805160209281900383019020835181546001600160a01b0319166001600160a01b0390911617815583830151600182015590830151805191926104ae92600285019290910190610694565b50606082015180516104ca916003840191602090910190610694565b506080820151600482015560a082015160058201805460ff1916600183600681111561050657634e487b7160e01b600052602160045260246000fd5b021790555060c08201518051610526916006840191602090910190610694565b5050600180548082018255600091909152885161056d92507fb10e2d527612073b26eecdfd717e6a320cf44b4afac2b0732d9fcbe2b7fa0cf69091019060208a0190610694565b508660405161057c9190610980565b6040519081900381204282529033907fb6d3ad13ffadf56392b7ddd3db81ff2c535097e2e279d63f085a10c1e9f5a5799060200160405180910390a3835115610686576000846040516105cf9190610980565b908152604051908190036020019020600101546106325760405162461bcd60e51b815260206004820152601960248201527f52656d69782066696c6520646f65736e27742065786973742e00000000000000604482015260640160405180910390fd5b836040516106409190610980565b60405180910390207f87083eb8196c62c41dc695374bad1554656c20a159223c547f5858032285ad813389864260405161067d9493929190610a5c565b60405180910390a25b506001979650505050505050565b8280546106a090610aee565b90600052602060002090601f0160209004810192826106c25760008555610708565b82601f106106db57805160ff1916838001178555610708565b82800160010185558215610708579182015b828111156107085782518255916020019190600101906106ed565b50610714929150610718565b5090565b5b808211156107145760008155600101610719565b80356007811061073c57600080fd5b919050565b600082601f830112610751578081fd5b813567ffffffffffffffff8082111561076c5761076c610b3f565b604051601f8301601f19908116603f0116810190828211818310171561079457610794610b3f565b816040528381528660208588010111156107ac578485fd5b8360208701602083013792830160200193909352509392505050565b60008060008060008060c087890312156107e0578182fd5b86359550602087013567ffffffffffffffff808211156107fe578384fd5b61080a8a838b01610741565b9650604089013591508082111561081f578384fd5b61082b8a838b01610741565b955061083960608a0161072d565b9450608089013591508082111561084e578384fd5b61085a8a838b01610741565b935060a089013591508082111561086f578283fd5b5061087c89828a01610741565b9150509295509295509295565b60006020828403121561089a578081fd5b813567ffffffffffffffff8111156108b0578182fd5b6108bc84828501610741565b949350505050565b6000806000606084860312156108d8578283fd5b833567ffffffffffffffff808211156108ef578485fd5b6108fb87838801610741565b94506020860135915060058210610910578384fd5b90925060408501359080821115610925578283fd5b5061093286828701610741565b9150509250925092565b60006020828403121561094d578081fd5b5035919050565b6000815180845261096c816020860160208601610abe565b601f01601f19169290920160200192915050565b60008251610992818460208701610abe565b9190910192915050565b600060018060a01b038916825287602083015260e060408301526109c360e0830188610954565b82810360608401526109d58188610954565b9050856080840152600785106109ed576109ed610b29565b8460a084015282810360c0840152610a058185610954565b9a9950505050505050505050565b6001600160a01b0385168152600060058510610a3157610a31610b29565b84602083015260806040830152610a4b6080830185610954565b905082606083015295945050505050565b6001600160a01b0385168152608060208201819052600090610a8090830186610954565b8281036040840152610a928186610954565b91505082606083015295945050505050565b600060208252610ab76020830184610954565b9392505050565b60005b83811015610ad9578181015183820152602001610ac1565b83811115610ae8576000848401525b50505050565b600181811c90821680610b0257607f821691505b60208210811415610b2357634e487b7160e01b600052602260045260246000fd5b50919050565b634e487b7160e01b600052602160045260246000fd5b634e487b7160e01b600052604160045260246000fdfea2646970667358221220b29f8906d38ed79772939994166ea100eeaa860aa4c2fe6c5837247a34be000464736f6c63430008030033",
  "immutableReferences": {},
  "source": "// SPDX-License-Identifier: MIT\r\npragma solidity >=0.4.16 <0.9.0;\r\n\r\n// Gestiona los recursos.\r\ncontract ResourceList {\r\n   \r\n    struct Resource {\r\n        address publisher;\r\n        bytes32 title;\r\n        string filehash; // content addressable identifier.\r\n        string description; // content description identifier.\r\n        uint256 timestamp; // date added\r\n        ResourceList.Licenses license;\r\n        string remixOf; // remix hash\r\n    }\r\n\r\n    enum Licenses {\r\n        Attribution,\r\n        Attribution_No_Derivative_Works,\r\n        Attribution_Share_Alike,\r\n        Attribution_Non_Commercial,\r\n        Attribution_Non_Commercial_Share_Alike,\r\n        Attribution_Non_Commercial_No_Derivatives,\r\n        Public_Domain\r\n    }\r\n\r\n    // Uso es utilizar tal cual el recurso, reuso es cambiar la intencion que le pretendes dar\r\n    enum Usages {\r\n        teaching,\r\n        self_learning,\r\n        assesment,\r\n        course_preparation,\r\n        lecture_class\r\n    }\r\n\r\n    // uint256 public constant maxAmountOfVotes = 1000;\r\n\r\n    mapping(string => Resource) public resources;\r\n\r\n    // mapping(string => address) public votes;\r\n\r\n    string[] public resourceIndex;\r\n\r\n    // Resource Management\r\n    event ResourceAdded(address indexed publisher , string indexed filehash, uint256 timestamp);\r\n\r\n    // Resource Tracking\r\n    event ResourceUsed(\r\n        string indexed resource,\r\n        address user,\r\n        Usages usage,\r\n        string comment,\r\n        uint256 timestamp\r\n    );\r\n\r\n    event ResourceAdapted( // Falta el tiempo\r\n        string indexed resource,\r\n        address user,\r\n        string remix,\r\n        string comment,\r\n        uint256 timestamp\r\n    );\r\n\r\n    function addResource(\r\n        bytes32 _title,\r\n        string memory _filehash,\r\n        string memory _description,\r\n        Licenses _license,\r\n        string memory _remixOf,\r\n        string memory remixComment\r\n    ) public returns (bool success) {\r\n        Resource memory newResource =\r\n            Resource(\r\n                msg.sender,\r\n                _title,\r\n                _filehash,\r\n                _description,\r\n                block.timestamp,\r\n                _license,\r\n                _remixOf\r\n            );\r\n        resources[_filehash] = newResource;\r\n        resourceIndex.push(_filehash);\r\n\r\n        emit ResourceAdded(msg.sender, _filehash, block.timestamp);\r\n\r\n        if (bytes(_remixOf).length != 0) {\r\n            // Check if original file exists.\r\n            require(\r\n                !(resources[_remixOf].title == 0x0),\r\n                \"Remix file doesn't exist.\"\r\n            );\r\n            emit ResourceAdapted(_remixOf, msg.sender, _filehash, remixComment, block.timestamp);\r\n        }\r\n        return true;\r\n    }\r\n\r\n    function registerUsage(string memory _resource, Usages  _usage, string memory _comment )\r\n        external\r\n        returns (bool success)\r\n    {\r\n        emit ResourceUsed(_resource, msg.sender, _usage, _comment,block.timestamp);\r\n        return true;\r\n    }\r\n\r\n    function getResourcesCount() public view returns (uint256 count) {\r\n        return resourceIndex.length;\r\n    }\r\n}",
  "sourcePath": "C:/Users/ricar/Projects/tesis/contracts/ResourceList.sol",
  "compiler": {
    "name": "solc",
    "version": "0.8.3+commit.8d00100c.Emscripten.clang"
  },
  "schemaVersion": "3.3.4",
  "updatedAt": "2021-05-25T13:35:52.670Z",
  "networkType": "ethereum",
  "devdoc": {
    "kind": "dev",
    "methods": {},
    "version": 1
  },
  "userdoc": {
    "kind": "user",
    "methods": {},
    "version": 1
  }
}