{
  "contractName": "ResourceList",
  "abi": [
    {
      "anonymous": false,
      "inputs": [
        {
          "indexed": true,
          "internalType": "string",
          "name": "resource",
          "type": "string"
        },
        {
          "indexed": false,
          "internalType": "address",
          "name": "consumer",
          "type": "address"
        },
        {
          "indexed": false,
          "internalType": "string",
          "name": "adaptatedResource",
          "type": "string"
        },
        {
          "indexed": false,
          "internalType": "string",
          "name": "comment",
          "type": "string"
        },
        {
          "indexed": false,
          "internalType": "enum ResourceList.Adaptation",
          "name": "adaptation",
          "type": "uint8"
        },
        {
          "indexed": false,
          "internalType": "uint256",
          "name": "timestamp",
          "type": "uint256"
        }
      ],
      "name": "ResourceAdapted",
      "type": "event"
    },
    {
      "anonymous": false,
      "inputs": [
        {
          "indexed": true,
          "internalType": "string",
          "name": "resource",
          "type": "string"
        },
        {
          "indexed": false,
          "internalType": "address",
          "name": "consumer",
          "type": "address"
        },
        {
          "indexed": false,
          "internalType": "enum ResourceList.Usages",
          "name": "usage",
          "type": "uint8"
        },
        {
          "indexed": false,
          "internalType": "string",
          "name": "comment",
          "type": "string"
        },
        {
          "indexed": false,
          "internalType": "uint256",
          "name": "timestamp",
          "type": "uint256"
        }
      ],
      "name": "ResourceUsed",
      "type": "event"
    },
    {
      "inputs": [
        {
          "internalType": "uint256",
          "name": "",
          "type": "uint256"
        }
      ],
      "name": "resourceIndex",
      "outputs": [
        {
          "internalType": "string",
          "name": "",
          "type": "string"
        }
      ],
      "stateMutability": "view",
      "type": "function",
      "constant": true
    },
    {
      "inputs": [
        {
          "internalType": "string",
          "name": "",
          "type": "string"
        }
      ],
      "name": "resources",
      "outputs": [
        {
          "internalType": "address",
          "name": "provider",
          "type": "address"
        },
        {
          "internalType": "bytes32",
          "name": "title",
          "type": "bytes32"
        },
        {
          "internalType": "bytes32",
          "name": "author",
          "type": "bytes32"
        },
        {
          "internalType": "string",
          "name": "filehash",
          "type": "string"
        },
        {
          "internalType": "string",
          "name": "descriptionhash",
          "type": "string"
        },
        {
          "internalType": "uint256",
          "name": "timestamp",
          "type": "uint256"
        },
        {
          "internalType": "enum ResourceList.Licenses",
          "name": "license",
          "type": "uint8"
        },
        {
          "internalType": "string",
          "name": "remixOf",
          "type": "string"
        }
      ],
      "stateMutability": "view",
      "type": "function",
      "constant": true
    },
    {
      "inputs": [
        {
          "internalType": "bytes32",
          "name": "_title",
          "type": "bytes32"
        },
        {
          "internalType": "bytes32",
          "name": "_author",
          "type": "bytes32"
        },
        {
          "internalType": "string",
          "name": "_filehash",
          "type": "string"
        },
        {
          "internalType": "string",
          "name": "_descriptionhash",
          "type": "string"
        },
        {
          "internalType": "enum ResourceList.Licenses",
          "name": "_license",
          "type": "uint8"
        }
      ],
      "name": "addResource",
      "outputs": [
        {
          "internalType": "bool",
          "name": "success",
          "type": "bool"
        }
      ],
      "stateMutability": "nonpayable",
      "type": "function"
    },
    {
      "inputs": [
        {
          "internalType": "bytes32",
          "name": "_title",
          "type": "bytes32"
        },
        {
          "internalType": "bytes32",
          "name": "_author",
          "type": "bytes32"
        },
        {
          "internalType": "string",
          "name": "_filehash",
          "type": "string"
        },
        {
          "internalType": "string",
          "name": "_descriptionhash",
          "type": "string"
        },
        {
          "internalType": "enum ResourceList.Licenses",
          "name": "_license",
          "type": "uint8"
        },
        {
          "internalType": "enum ResourceList.Adaptation",
          "name": "_adaptation",
          "type": "uint8"
        },
        {
          "internalType": "string",
          "name": "_remixOf",
          "type": "string"
        },
        {
          "internalType": "string",
          "name": "_comment",
          "type": "string"
        }
      ],
      "name": "addAdaptation",
      "outputs": [
        {
          "internalType": "bool",
          "name": "success",
          "type": "bool"
        }
      ],
      "stateMutability": "nonpayable",
      "type": "function"
    },
    {
      "inputs": [
        {
          "internalType": "string",
          "name": "_resource",
          "type": "string"
        },
        {
          "internalType": "enum ResourceList.Usages",
          "name": "_usage",
          "type": "uint8"
        },
        {
          "internalType": "string",
          "name": "_comment",
          "type": "string"
        }
      ],
      "name": "registerUsage",
      "outputs": [
        {
          "internalType": "bool",
          "name": "success",
          "type": "bool"
        }
      ],
      "stateMutability": "nonpayable",
      "type": "function"
    },
    {
      "inputs": [],
      "name": "getResourcesCount",
      "outputs": [
        {
          "internalType": "uint256",
          "name": "count",
          "type": "uint256"
        }
      ],
      "stateMutability": "view",
      "type": "function",
      "constant": true
    }
  ],
  "bytecode": "0x608060405234801561001057600080fd5b50610e5e806100206000396000f3fe608060405234801561001057600080fd5b50600436106100625760003560e01c806304f86f3c146100675780630c5380151461009757806314ced016146100ba578063324e40c0146100cb5780635cc8b24a146100eb578063a7c5f648146100fe575b600080fd5b61007a610075366004610b3e565b610111565b60405161008e989796959493929190610c51565b60405180910390f35b6100aa6100a5366004610b79565b610309565b604051901515815260200161008e565b60015460405190815260200161008e565b6100de6100d9366004610bf1565b6103d7565b60405161008e9190610d77565b6100aa6100f9366004610a61565b610483565b6100aa61010c3660046109dc565b6106e9565b805160208183018101805160008252928201919093012091528054600182015460028301546003840180546001600160a01b0390941694929391929161015690610dc1565b80601f016020809104026020016040519081016040528092919081815260200182805461018290610dc1565b80156101cf5780601f106101a4576101008083540402835291602001916101cf565b820191906000526020600020905b8154815290600101906020018083116101b257829003601f168201915b5050505050908060040180546101e490610dc1565b80601f016020809104026020016040519081016040528092919081815260200182805461021090610dc1565b801561025d5780601f106102325761010080835404028352916020019161025d565b820191906000526020600020905b81548152906001019060200180831161024057829003601f168201915b50505050600583015460068401546007850180549495929460ff90921693509061028690610dc1565b80601f01602080910402602001604051908101604052809291908181526020018280546102b290610dc1565b80156102ff5780601f106102d4576101008083540402835291602001916102ff565b820191906000526020600020905b8154815290600101906020018083116102e257829003601f168201915b5050505050905088565b60008360008160405161031c9190610c35565b908152604051908190036020019020600101546103795760405162461bcd60e51b815260206004820152601660248201527514995cdbdd5c98d948191bd95cdb89dd08195e1a5cdd60521b60448201526064015b60405180910390fd5b846040516103879190610c35565b60405180910390207fba42f934f7d6c3dc144eb7f3b8e248b9700b31862ca0cb134b1476fe27542916338686426040516103c49493929190610cd2565b60405180910390a2506001949350505050565b600181815481106103e757600080fd5b90600052602060002001600091509050805461040290610dc1565b80601f016020809104026020016040519081016040528092919081815260200182805461042e90610dc1565b801561047b5780601f106104505761010080835404028352916020019161047b565b820191906000526020600020905b81548152906001019060200180831161045e57829003601f168201915b505050505081565b6000826000816040516104969190610c35565b908152604051908190036020019020600101546104ee5760405162461bcd60e51b815260206004820152601660248201527514995cdbdd5c98d948191bd95cdb89dd08195e1a5cdd60521b6044820152606401610370565b6000604051806101000160405280336001600160a01b031681526020018c81526020018b81526020018a815260200189815260200142815260200188600681111561054957634e487b7160e01b600052602160045260246000fd5b81526020018681525090508060008a6040516105659190610c35565b9081526040805160209281900383019020835181546001600160a01b0319166001600160a01b039091161781558383015160018201559083015160028201556060830151805191926105bf92600385019290910190610899565b50608082015180516105db916004840191602090910190610899565b5060a0820151816005015560c08201518160060160006101000a81548160ff0219169083600681111561061e57634e487b7160e01b600052602160045260246000fd5b021790555060e0820151805161063e916007840191602090910190610899565b50506001805480820182556000919091528a5161068592507fb10e2d527612073b26eecdfd717e6a320cf44b4afac2b0732d9fcbe2b7fa0cf69091019060208c0190610899565b50846040516106949190610c35565b60405180910390207fbf57937f1219f76313303f258b6de43d11d03b0be8d6933daa81ec911c34ce78338b878a426040516106d3959493929190610d1b565b60405180910390a2505098975050505050505050565b600080604051806101000160405280336001600160a01b0316815260200188815260200187815260200186815260200185815260200142815260200184600681111561074557634e487b7160e01b600052602160045260246000fd5b81526040805160208181018352600080835293015251919250829161076b908890610c35565b9081526040805160209281900383019020835181546001600160a01b0319166001600160a01b039091161781558383015160018201559083015160028201556060830151805191926107c592600385019290910190610899565b50608082015180516107e1916004840191602090910190610899565b5060a0820151816005015560c08201518160060160006101000a81548160ff0219169083600681111561082457634e487b7160e01b600052602160045260246000fd5b021790555060e08201518051610844916007840191602090910190610899565b5050600180548082018255600091909152865161088b92507fb10e2d527612073b26eecdfd717e6a320cf44b4afac2b0732d9fcbe2b7fa0cf6909101906020880190610899565b506001979650505050505050565b8280546108a590610dc1565b90600052602060002090601f0160209004810192826108c7576000855561090d565b82601f106108e057805160ff191683800117855561090d565b8280016001018555821561090d579182015b8281111561090d5782518255916020019190600101906108f2565b5061091992915061091d565b5090565b5b80821115610919576000815560010161091e565b80356004811061094157600080fd5b919050565b80356007811061094157600080fd5b600082601f830112610965578081fd5b813567ffffffffffffffff8082111561098057610980610e12565b604051601f8301601f19908116603f011681019082821181831017156109a8576109a8610e12565b816040528381528660208588010111156109c0578485fd5b8360208701602083013792830160200193909352509392505050565b600080600080600060a086880312156109f3578081fd5b8535945060208601359350604086013567ffffffffffffffff80821115610a18578283fd5b610a2489838a01610955565b94506060880135915080821115610a39578283fd5b50610a4688828901610955565b925050610a5560808701610946565b90509295509295909350565b600080600080600080600080610100898b031215610a7d578283fd5b8835975060208901359650604089013567ffffffffffffffff80821115610aa2578485fd5b610aae8c838d01610955565b975060608b0135915080821115610ac3578485fd5b610acf8c838d01610955565b9650610add60808c01610946565b9550610aeb60a08c01610932565b945060c08b0135915080821115610b00578384fd5b610b0c8c838d01610955565b935060e08b0135915080821115610b21578283fd5b50610b2e8b828c01610955565b9150509295985092959890939650565b600060208284031215610b4f578081fd5b813567ffffffffffffffff811115610b65578182fd5b610b7184828501610955565b949350505050565b600080600060608486031215610b8d578283fd5b833567ffffffffffffffff80821115610ba4578485fd5b610bb087838801610955565b94506020860135915060058210610bc5578384fd5b90925060408501359080821115610bda578283fd5b50610be786828701610955565b9150509250925092565b600060208284031215610c02578081fd5b5035919050565b60008151808452610c21816020860160208601610d91565b601f01601f19169290920160200192915050565b60008251610c47818460208701610d91565b9190910192915050565b600061010060018060a01b038b168352896020840152886040840152806060840152610c7f81840189610c09565b90508281036080840152610c938188610c09565b90508560a084015260078510610cab57610cab610dfc565b8460c084015282810360e0840152610cc38185610c09565b9b9a5050505050505050505050565b6001600160a01b0385168152600060058510610cf057610cf0610dfc565b84602083015260806040830152610d0a6080830185610c09565b905082606083015295945050505050565b6001600160a01b038616815260a060208201819052600090610d3f90830187610c09565b8281036040840152610d518187610c09565b91505060048410610d6457610d64610dfc565b6060820193909352608001529392505050565b600060208252610d8a6020830184610c09565b9392505050565b60005b83811015610dac578181015183820152602001610d94565b83811115610dbb576000848401525b50505050565b600181811c90821680610dd557607f821691505b60208210811415610df657634e487b7160e01b600052602260045260246000fd5b50919050565b634e487b7160e01b600052602160045260246000fd5b634e487b7160e01b600052604160045260246000fdfea26469706673582212201abf0e4e3db0ca3d3d6a04926618629c27e4664ab71ed8d856c0e2b66256f26d64736f6c63430008030033",
  "immutableReferences": {},
  "source": "// SPDX-License-Identifier: MIT\r\npragma solidity >=0.4.16 <0.9.0;\r\n\r\ncontract ResourceList{\r\n   // Representa el REA\r\n    struct Resource {\r\n        address provider;\r\n        bytes32 title;\r\n        bytes32 author;\r\n        string filehash; \r\n        string descriptionhash; \r\n        uint256 timestamp; \r\n        ResourceList.Licenses license;\r\n        string remixOf;\r\n    }\r\n    // Enumera las licencias CC.\r\n    enum Licenses {\r\n        Attribution,\r\n        AttributionNoDerivativeWorks,\r\n        AttributionShareAlike,\r\n        AttributionNonCommercial,\r\n        AttributionNonCommercialShareAlike,\r\n        AttributionNonCommercialNoDerivatives,\r\n        PublicDomain\r\n    }\r\n    // Enumera los usos.\r\n    enum Usages {\r\n        Teaching,\r\n        SelfLearning,\r\n        Assesment,\r\n        CoursePreparation,\r\n        LectureClass\r\n    }\r\n\r\n    // Enumera las adaptaciones.\r\n    enum Adaptation {\r\n        Remix,\r\n        Correction,\r\n        DerivedCopy,\r\n        Translation\r\n    }\r\n    // mapping to store Resources.\r\n    mapping(string => Resource) public resources;\r\n\r\n    // array used for knowing resourceIndex.\r\n    string[] public resourceIndex;\r\n\r\n    // Modifiers\r\n    modifier resourceExists (string memory filehash){\r\n      require(!(resources[filehash].title == 0x0), \"Resource doesn't exist\");\r\n      _;\r\n   }\r\n\r\n    // Events\r\n    // Register Resource Usage Log\r\n    event ResourceUsed(\r\n        string indexed resource,\r\n        address consumer,\r\n        Usages usage,\r\n        string comment,\r\n        uint256 timestamp\r\n    );\r\n\r\n    // Register Resource Adaptation Log\r\n    event ResourceAdapted( \r\n        string indexed resource,\r\n        address consumer,\r\n        string adaptatedResource,\r\n        string comment,\r\n        Adaptation adaptation,\r\n        uint256 timestamp\r\n    );\r\n\r\n    // Add Resource\r\n    function addResource(\r\n        bytes32 _title,\r\n        bytes32 _author,\r\n        string memory _filehash,\r\n        string memory _descriptionhash,\r\n        Licenses _license\r\n    ) public returns (bool success) {\r\n        Resource memory newResource =\r\n            Resource(\r\n                msg.sender,\r\n                _title,\r\n                _author,\r\n                _filehash,\r\n                _descriptionhash,\r\n                block.timestamp,\r\n                _license,\r\n                \"\"\r\n            );\r\n        resources[_filehash] = newResource;\r\n        resourceIndex.push(_filehash);\r\n        return true;\r\n    }\r\n\r\n    // Add Resource Adaptation\r\n   function addAdaptation(\r\n        bytes32 _title,\r\n        bytes32 _author,\r\n        string memory _filehash,\r\n        string memory _descriptionhash,\r\n        Licenses _license,\r\n        Adaptation _adaptation,\r\n        string memory _remixOf,\r\n        string memory _comment\r\n    ) public \r\n    resourceExists(_remixOf)\r\n    returns (bool success) {\r\n        Resource memory newResource =\r\n            Resource(\r\n                msg.sender,\r\n                _title,\r\n                _author,\r\n                _filehash,\r\n                _descriptionhash,\r\n                block.timestamp,\r\n                _license,\r\n                _remixOf\r\n            );\r\n        resources[_filehash] = newResource;\r\n        resourceIndex.push(_filehash);\r\n        \r\n        emit ResourceAdapted(_remixOf, msg.sender, _filehash, _comment,_adaptation, block.timestamp);\r\n    }\r\n\r\n    function registerUsage(string memory _resource, Usages  _usage, string memory _comment )\r\n        external\r\n        resourceExists(_resource)\r\n        returns (bool success)\r\n    {\r\n        emit ResourceUsed(_resource, msg.sender, _usage, _comment,block.timestamp);\r\n        return true;\r\n    }\r\n\r\n    function getResourcesCount() public view returns (uint256 count) {\r\n        return resourceIndex.length;\r\n    }\r\n}",
  "sourcePath": "C:/Users/ricar/Projects/tesis/contracts/ResourceList.sol",
  "compiler": {
    "name": "solc",
    "version": "0.8.3+commit.8d00100c.Emscripten.clang"
  },
  "schemaVersion": "3.3.4",
  "updatedAt": "2022-05-11T01:31:24.262Z",
  "networkType": "ethereum",
  "devdoc": {
    "kind": "dev",
    "methods": {},
    "version": 1
  },
  "userdoc": {
    "kind": "user",
    "methods": {},
    "version": 1
  }
}