{
  "contractName": "UserList",
  "abi": [
    {
      "inputs": [
        {
          "internalType": "uint256",
          "name": "",
          "type": "uint256"
        }
      ],
      "name": "userList",
      "outputs": [
        {
          "internalType": "address",
          "name": "",
          "type": "address"
        }
      ],
      "stateMutability": "view",
      "type": "function",
      "constant": true
    },
    {
      "inputs": [
        {
          "internalType": "address",
          "name": "",
          "type": "address"
        }
      ],
      "name": "users",
      "outputs": [
        {
          "internalType": "bytes32",
          "name": "name",
          "type": "bytes32"
        },
        {
          "internalType": "uint256",
          "name": "createdAt",
          "type": "uint256"
        }
      ],
      "stateMutability": "view",
      "type": "function",
      "constant": true
    },
    {
      "inputs": [
        {
          "internalType": "bytes32",
          "name": "_name",
          "type": "bytes32"
        }
      ],
      "name": "register",
      "outputs": [
        {
          "internalType": "bytes32",
          "name": "username",
          "type": "bytes32"
        }
      ],
      "stateMutability": "nonpayable",
      "type": "function"
    },
    {
      "inputs": [],
      "name": "getUserCount",
      "outputs": [
        {
          "internalType": "uint256",
          "name": "userCount",
          "type": "uint256"
        }
      ],
      "stateMutability": "view",
      "type": "function",
      "constant": true
    }
  ],
  "bytecode": "0x608060405234801561001057600080fd5b506101de806100206000396000f3fe608060405234801561001057600080fd5b506004361061004c5760003560e01c80639f4216e814610051578063a87430ba14610081578063b5cb15f7146100bd578063e1fa8e84146100cf575b600080fd5b61006461005f366004610190565b610138565b6040516001600160a01b0390911681526020015b60405180910390f35b6100a861008f366004610162565b6000602081905290815260409020805460019091015482565b60408051928352602083019190915201610078565b6001545b604051908152602001610078565b6100c16100dd366004610190565b3360008181526020819052604090209182554260018084019190915580548082019091557fb10e2d527612073b26eecdfd717e6a320cf44b4afac2b0732d9fcbe2b7fa0cf60180546001600160a01b03191690911790555490565b6001818154811061014857600080fd5b6000918252602090912001546001600160a01b0316905081565b600060208284031215610173578081fd5b81356001600160a01b0381168114610189578182fd5b9392505050565b6000602082840312156101a1578081fd5b503591905056fea26469706673582212200df9c5c1e92d2d539f8d9496162bed6519df07aa180e46d97d8ce8f692bbbd5e64736f6c63430008030033",
  "immutableReferences": {},
  "source": "// SPDX-License-Identifier: MIT\r\npragma solidity >=0.4.16 <0.9.0;\r\n       \r\n// Gestiona los usuarios.\r\ncontract UserList{\r\n    struct User{\r\n        bytes32 name; // 0x4d6175726963696f000000000000000000000000000000000000000000000000\r\n        uint256 createdAt;\r\n    }\r\n\r\n    mapping(address => User) public users;\r\n\r\n    address[] public userList;\r\n\r\n\r\n    function register\r\n    (bytes32 _name) \r\n    public\r\n    returns (bytes32 username)\r\n    {\r\n        users[msg.sender].name = _name;\r\n        users[msg.sender].createdAt = block.timestamp;\r\n        userList.push(msg.sender);\r\n        return (users[msg.sender].name);\r\n    }\r\n\r\n    function getUserCount()\r\n    public\r\n    view\r\n    returns (uint userCount)\r\n    {\r\n        return userList.length;\r\n    }\r\n   \r\n}",
  "sourcePath": "C:/Users/ricar/Projects/tesis/contracts/UserList.sol",
  "compiler": {
    "name": "solc",
    "version": "0.8.3+commit.8d00100c.Emscripten.clang"
  },
  "schemaVersion": "3.3.4",
  "updatedAt": "2021-08-02T20:14:20.070Z",
  "networkType": "ethereum",
  "devdoc": {
    "kind": "dev",
    "methods": {},
    "version": 1
  },
  "userdoc": {
    "kind": "user",
    "methods": {},
    "version": 1
  }
}